:100000000C9474010C9491010C9491010C94910145
:100010000C9491010C9491010C9491010C94910118
:100020000C9491010C9491010C9491010C94910108
:100030000C9491010C9491010C94A6190C949101CB
:100040000C9491010C94E3170C9486170C944817A8
:100050000C9491010C94C5100C9491010C94910195
:100060000C9491010C949101808183848687898A04
:100070008C8E8F9192949597989A9B9D9EA0A2A307
:10008000A5A6A7A9AAACADAFB0B2B3B5B6B7B9BA79
:10009000BCBDBEC0C1C2C4C5C6C8C9CACBCDCECF07
:1000A000D0D2D3D4D5D6D7D9DADBDCDDDEDFE0E1C0
:1000B000E2E3E4E5E6E7E8E9EAEAEBECEDEEEEEFB1
:1000C000F0F1F1F2F3F3F4F5F5F6F6F7F8F8F9F9E3
:1000D000FAFAFAFBFBFCFCFCFDFDFDFDFEFEFEFE5C
:1000E000FEFFFFFFFFFFFFFF0000891112239B327D
:1000F0002446AD573665BF74488CC19D5AAFD3BEF8
:100100006CCAE5DB7EE9F7F88110080193331A2207
:10011000A5562C47B7753E64C99C408DDBBF52AED7
:10012000EDDA64CBFFF976E802218B3010029913E7
:100130002667AF763444BD554AADC3BC588ED19FB7
:100140006EEBE7FA7CC8F5D983310A2091121803C7
:10015000A7772E66B5543C45CBBD42ACD99E508F97
:10016000EFFB66EAFDD874C904428D5316619F7097
:100170002004A9153227BB364CCEC5DF5EEDD7FC77
:100180006888E1997AABF3BA85520C4397711E6087
:10019000A1142805B3373A26CDDE44CFDFFD56EC57
:1001A000E9986089FBBB72AA06638F7214409D5167
:1001B0002225AB343006B9174EEFC7FE5CCCD5DD37
:1001C0006AA9E3B8788AF19B87730E6295501C4147
:1001D000A3352A24B1163807CFFF46EEDDDC54CD17
:1001E000EBB962A8F99A708B088481951AA793B627
:1001F0002CC2A5D33EE1B7F04008C919522BDB3A17
:10020000644EED5F766DFF7C899400859BB712A6E6
:10021000ADD224C3BFF136E0C1184809D33B5A2AF6
:10022000E55E6C4FF77D7E6C0AA583B418869197C6
:100230002EE3A7F23CC0B5D14229CB38500AD91BD6
:10024000666FEF7E744CFD5D8BB502A499961087A6
:10025000AFF326E2BDD034C1C3394A28D11A580BB6
:10026000E77F6E6EF55C7C4D0CC685D71EE597F476
:100270002880A1913AA3B3B2444ACD5B5669DF7896
:10028000600CE91D722FFB3E8DD604C79FF516E466
:10029000A9902081BBB332A2C55A4C4BD7795E6876
:1002A000E11C680DF33F7A2E0EE787F61CC495D546
:1002B0002AA1A3B03882B193466BCF7A5448DD5956
:1002C000622DEB3C700EF91F8FF706E69DD414C526
:1002D000ABB122A0B9923083C77B4E6AD5585C4936
:1002E000E33D6A2CF11E780F11241FBECFEFD8E03A
:1002F000DEBFCDBF12E0A0E0B1E0E0E7FAE302C06C
:1003000005900D92AA34B107D9F725E0AAE4B2E02E
:1003100001C01D92A938B207E1F70E94301A0C946F
:10032000361D0C94000083539F4FFC012081211146
:10033000FCCF80E090E008952FB7F894FC01E253E1
:10034000FF4F808191812FBF08952FB7F894FC0152
:10035000E253FF4F118210822FBF0895CF92DF9298
:10036000EF92FF920F931F93CF93DF93FC01DB017A
:10037000460F571FA417B50761F4CD01861B970BD5
:10038000DF91CF911F910F91FF90EF90DF90CF9071
:100390000895CFB7F89422A933A984A995A9CFBF0E
:1003A0002817390751F38FB7F894C0908505D0907E
:1003B0008605E0908705F09088058FBFCFB7F89449
:1003C00022A933A984A995A9CFBF28173907A9F471
:1003D0008FB7F894009185051091860520918705C7
:1003E000309188058FBF0C191D092E093F09101681
:1003F00011061206130614F7C0CF2FB7F894C2A93E
:10040000D3A980AD91ADC817D90719F486A997A9CA
:1004100004C0C2A9D3A9CE01019693AB82AB888157
:100420002FBF8D93A7CF2F923F924F925F926F92E3
:100430007F928F929F92AF92BF92CF92DF92EF9274
:10044000FF920F931F93CF93DF9300D000D0CDB7CF
:10045000DEB79C838B837A836983460F571FFC0129
:10046000E658FF4F33243394442443949C01235390
:100470003F4FA0E46A2E712C4C0184ED880E911C34
:10048000BDE2AB2EB12C0B811C810A521F4F88E0BC
:10049000E82EF12C89819A818417950709F45BC0B5
:1004A0005FB6F894C080D18084819581C816D90642
:1004B00039F4C280D38086819781C816D90669F045
:1004C000C280D38080819181019722242394C81611
:1004D000D90609F0212C822D01C081E05FBE80FD8C
:1004E000DFCFA981BA81DD90BA83A9835FB6F89482
:1004F00082819381DC01DC92C280D38086819781E6
:10050000C816D90619F48481958103C0828193812C
:100510000196938382835FBED9018C91811114C0AF
:10052000AB81BC8194967C926E92939792961C922A
:100530001E92919790961C92D9013C92D401AD9253
:10054000BC922B9A409280058FB7F894D801ED9217
:10055000FC928FBF9FCF861B970B0F900F900F9031
:100560000F90DF91CF911F910F91FF90EF90DF904F
:10057000CF90BF90AF909F908F907F906F905F9043
:100580004F903F902F900895CF93DF93FC012D9AC9
:10059000DC01AC53BF4F4D915C911197EC01CE53F0
:1005A000DF4F59834883C5A1D6A183A594A5C81759
:1005B000D90719F481A592A504C0C5A1D6A1CE0181
:1005C000019696A385A388818602C0011124959582
:1005D0008795959587958D939C93DF01A853BF4F81
:1005E0002D913C911197EF01CA53DF4F3983288336
:1005F000840F951FA90155954795840F951FA90153
:10060000C3E055954795CA95E1F7840F951FD5E04E
:1006100035952795DA95E1F7820F931F11969C93F4
:100620008E93129621E0181619060CF020E08C919A
:10063000880F822B8C93C7A1D0A5688327A130A5F2
:1006400083A594A52817390719F481A592A503C09D
:1006500087A190A5019690A787A39C91892F869545
:100660008927DF01A553BF4F80FF07C08C918032DF
:1006700014F48F5F01C081508C938C91885F8C93B0
:1006800080340CF403C18F738C93DF01A453BF4FEC
:100690008C91880F97702BEF290F233010F0933037
:1006A00009F481608C939C91892F86958927809588
:1006B0008170DF01A053BF4F9C91990F892B8C93C0
:1006C0008E37B1F522A933A986A997A9281739072A
:1006D00039F424A935A980AD91AD2817390761F007
:1006E00024A935A982A993A9019741E028173907C0
:1006F00009F040E0842F01C081E080FDB1C0C4A9B1
:10070000D5A98EE7888324A935A980AD91AD281796
:10071000390719F486A997A903C084A995A9019658
:1007200095AB84AB81E013968C93139741E09CC00A
:10073000982F9F779F3719F413961C92A7C0139692
:100740009C911397992309F4A1C0982F9F739E330E
:1007500009F49CC080FF07C012968C9112978068A4
:1007600012968C93129711968C9111978F5F119618
:100770008C93119712969C911297883008F483C03D
:1007800082E8890F823010F09B31B1F522A933A99C
:1007900086A997A92817390739F424A935A980AD66
:1007A00091AD2817390761F024A935A982A993A929
:1007B000019741E02817390709F040E0842F01C074
:1007C00081E080FD14C0C4A9D5A98BE1888324A948
:1007D00035A980AD91AD2817390719F486A997A9D5
:1007E00003C084A995A9019695AB84AB05C0139667
:1007F0001C92139740E001C041E022A933A986A9C9
:1008000097A92817390739F424A935A980AD91ADE6
:100810002817390761F024A935A982A993A901975E
:1008200051E02817390709F050E0852F01C081E019
:1008300080FD16C012968C911297C4A9D5A9888301
:1008400024A935A980AD91AD2817390719F486A9D7
:1008500097A903C084A995A9019695AB84AB04C060
:1008600013961C92139740E012961C9212971196C1
:100870001C9241110BC0E253FF4F80819181816036
:100880009183808303C0969512969C932D98DF9157
:10089000CF910895CF93DF93FC012D9A848D811120
:1008A000B2C0868D811184C0DF01A658BF4F2D9143
:1008B0003C91119712968D919C91139728173907A7
:1008C00041F4EF01CA52DF4F88819981892B09F4E5
:1008D00046C0878D811101C010A281E0878FEF0192
:1008E000CC52DF4F88819981009739F52D913C9149
:1008F000119712968D919C9113972817390721F41F
:1009000022968881998119C0CD91DC911197169614
:100910008D919C911797C817D90729F414968D913A
:100920009C91159705C0CD91DC911197CE01019650
:1009300011969C938E93888104C001979983888334
:100940008EE7858F858D8B3169F52D913C911197BF
:1009500012968D919C9113972817390749F42B987B
:1009600010928005E353FF4F10822D9880E06DC0F8
:10097000CD91DC91119716968D919C911797C81780
:10098000D90729F414968D919C91159705C0CD91A6
:10099000DC911197CE01019611969C938E938881DC
:1009A000858F04C08E57823008F4178E81E0868FC1
:1009B000278D83A194A1222379F020A1253060F016
:1009C00010A28034910519F485E790E002C080E41C
:1009D00090E094A383A315C0368D258D232321F0A9
:1009E00080A18F5F80A30BC010A28034910519F401
:1009F00085E790E002C080E490E094A383A3330FE6
:100A0000368F88E0848F83A194A121A132A1820F27
:100A1000931F917092A381A3848D8150848F2D9810
:100A200021A132A1F901FF27E038F10530F08FEF65
:100A300090E0AC014E1B5F0BFA01E859FF4F849127
:100A40002F3F310511F008F08095DF91CF91089587
:100A5000CF93DF93EC01CB0128EDFE0111922A9593
:100A6000E9F7798F688F5B8F4A8F9E01235D3F4F37
:100A70003AA729A738A72FA33EA32DA32C5F3F4F4A
:100A80003CA72BA7275F3F4F3FAB2EAB3DAB2CAB1B
:100A90003BAB2AAB215C3F4F39AF28AF24E030E0BD
:100AA000EFA1F8A510826FA178A54BA55CA56417EE
:100AB000750719F449A55AA504C04FA158A54F5F61
:100AC0005F4F58A74FA3215031092115310541F738
:100AD0009E012E573F4FFE01E658FF4F358324837A
:100AE0003383228331832083215C3F4F37832683E6
:100AF000BE010E9496108AB1806F8AB9239A259A06
:100B000083E192E09B838A838EEA91E099838883D4
:100B100083E991E09B878A878CE991E09D878C87A8
:100B200085EA91E09F878E8780E490E09CA38BA369
:100B3000DF91CF910895CF92DF92EF92FF920F93C2
:100B40001F93CF93DF931F92CDB7DEB77C01462F63
:100B500082E8860F9701265B3E4F6901823010F0D4
:100B60006B3149F4F601608171818BE190E049833A
:100B70000E9406114981D701A05BBE4F2C911196AE
:100B80005C911197842F90E0FC01E227EE0FFF1F8C
:100B9000E851FF4F25913491052F10E02027312790
:100BA0002D933C93F601608171810F90DF91CF917D
:100BB0001F910F91FF90EF90DF90CF900C94061152
:100BC0000F931F93CF93DF93182F092FEB01DF9320
:100BD0006F932DE931E03F932F939F931F930E94D2
:100BE00083118E810F900F900F900F900F900F90A8
:100BF000882381F01F928F9322EA31E03F932F9355
:100C00000F931F930E9483110F900F900F900F90DE
:100C10000F900F90DF91CF911F910F9108952F9218
:100C20003F924F925F926F927F928F929F92AF927C
:100C3000BF92CF92DF92EF92FF920F931F93CF93C9
:100C4000DF93CDB7DEB7CA55D1090FB6F894DEBF32
:100C50000FBECDBF8C014C0126EB821A2EEF920AFB
:100C60003C014BEA641A4EEF740A7C015CEAE51A17
:100C70005EEFF50A6C0184EBC81A8EEFD80A5801B2
:100C800092EBA91A9EEFB90AD4018D919C910E9412
:100C90006A118F3FBFEF9B0709F404C1F301208164
:100CA0002111D2C08E37910509F0C2C0D6012D9115
:100CB0003C912231310508F4AFC0F501808191816A
:100CC000883B904F09F0A8C0D801FE013996CE01AB
:100CD0000F964D914695403209F440E04193E81754
:100CE000F907B9F7D80116968C91169786958F70EB
:100CF0008F871796FE013196CF0106964D91469546
:100D0000403209F440E04193E817F907B9F7F801D8
:100D10003D96D8011D968C9186958F708F83312CCE
:100D2000808180FF0DC062963FAE6297818190E026
:100D300064969FAF8EAF6497039709F06DC04BC068
:100D400057E0531580F3632D70E044244394512CF5
:100D50004C0E5D1E88E0389E400C511C1124DF01B2
:100D600011966B96BFAFAEAF6B9780E090E06B963D
:100D7000AEADBFAD6B974D916B96BFAFAEAF6B97FE
:100D80004695403211F4212C01C0242EA201480FB7
:100D9000591FDA0150962C9201968630910539F749
:100DA00037969081DB0183E0AA0FBB1F8A95E1F79C
:100DB00041E050E04C0F5D1FA40FB51F892F8695B1
:100DC0008F7056968C935697991F9927991F57960F
:100DD0009C933394A5CF828165968FAF6597803FB2
:100DE000D9F4339622503109C8018E1B9F0B280F6E
:100DF000391F69963FAF2EAF69976796FFAFEEAF89
:100E00006797F801EE5AFE4F0190F081E02D309780
:100E100019F0CE010196099581E0F70180838FEFEB
:100E20009FEFD5018D939C93F601118210822CCFF8
:100E30008F37910511F4D70133C08B31910521F41F
:100E400081E0F301808320CFD7012C91222339F157
:100E5000F601208131812A34F1E03F07F0F4A90145
:100E60004F5F5F4FD6014D935C93F801E20FF31F84
:100E70008083F50120813181F901E827FF27EE0FFA
:100E8000FF1FE851FF4F85919491232F332782272D
:100E90009327D5018D939C9302C0F7011082D30153
:100EA0001C92F2CEF40180819181DC011C96ED91BF
:100EB000FC911D970995892B91F0F4018081918116
:100EC000DC011C96ED91FC911D970995F401808140
:100ED0009181DC011E96ED91FC911F970995C65AF0
:100EE000DF4F0FB6F894DEBF0FBECDBFDF91CF91BD
:100EF0001F910F91FF90EF90DF90CF90BF90AF9038
:100F00009F908F907F906F905F904F903F902F9029
:100F100008952F923F924F925F926F927F928F929D
:100F20009F92AF92BF92CF92DF92EF92FF920F9378
:100F30001F93CF93DF93CDB7DEB729970FB6F89401
:100F4000DEBF0FBECDBF998788876B014A012C8316
:100F50003D835C0180EBA81A8EEFB80A8FEF9FEFFC
:100F6000F5019183808368847984F6EB6F1AFEEF34
:100F70007F0AF301608171818EE790E00E94061183
:100F80007601C12CD12CC40101979B838A83C8149C
:100F9000D90409F45BC091E09983EA81FB81CE1604
:100FA000DF0609F0198266E070E0C7010E942B1D80
:100FB0002C018730910518F096E0492E512C9201B2
:100FC0002E0D3F1D17012216330689F0F101819184
:100FD0001F0190E02E833F830E94161D682F660F2D
:100FE000888599850E949B053F812E81ECCFF6E094
:100FF0004F16510431F4F7018781811115C080E645
:1010000014C0212C312C86E090E0841995092C0124
:101010002414350480F760E4888599850E949B0537
:101020009FEF291A390AF4CF80EEF7016681660F27
:10103000F9816F2B682B888599850E949B058FEF1E
:10104000C81AD80A98E0E90EF11CA1CF63E08885A0
:1010500099850E949B0560EF888599850E949B0574
:10106000EC80FD800E0D1F1DE016F10641F0F7012A
:1010700061917F01888599850E949B05F5CFF501D7
:10108000608111816095888599850E949B05612FFB
:101090006095888599850E949B05F3016081718127
:1010A0008EE790E029960FB6F894DEBF0FBECDBF55
:1010B000DF91CF911F910F91FF90EF90DF90CF9034
:1010C000BF90AF909F908F907F906F905F904F9068
:1010D0003F902F900C940611AF92BF92CF92DF9267
:1010E000EF92FF920F931F93CF93DF93B82EA92E09
:1010F000EB010E94E0056B2D7A2D8EE390E00E94BB
:101100000611BE01685F7F4F8B2D9A2D0E94E0056E
:101110008E01005F1F4FE12CF12C6E0180E5C80E9F
:10112000D11CF601208130E0E216F306DCF46B2DD1
:101130007A2D8CE290E00E940611B8018B2D9A2D39
:101140000E94E005F8018781882331F06B2D7A2D0C
:101150008AE290E00E940611FFEFEF1AFF0A085F93
:101160001F4FDFCFFE01EC5AFF4F81818F938081AB
:101170008F93CA5ADF4F89818F9388818F9326EA94
:1011800031E03F932F93AF92BF920E9483118DB7AE
:101190009EB708960FB6F8949EBF0FBE8DBFDF9125
:1011A000CF911F910F91FF90EF90DF90CF90BF9064
:1011B000AF90089526E531E0DC01F9011D923197E9
:1011C000E9F7FC01E65BFE4F71836083389651833B
:1011D000408332972FEF3FEF318320833297318363
:1011E00020830895DB01460F571FA417B50779F038
:1011F0006D91292F3327FC01E627FF27EE0FFF1FF4
:10120000E851FF4F8591949182279327EECF08955F
:101210002F923F924F925F926F927F928F929F9206
:10122000AF92BF92CF92DF92EF92FF920F931F93F4
:10123000CF93DF93CDB7DEB7C25AD1090FB6F8947A
:10124000DEBF0FBECDBFFC01CC56DF4F7983688374
:10125000C459D040CA56DF4F59834883C659D0403D
:101260006901612C712C9E012A573F4FC957DF4FEE
:1012700039832883C758D0409F012F5F3F4FC65600
:10128000DF4F39832883CA59D0408081853231F1BC
:10129000882309F430C7CA56DF4F68817981C6595F
:1012A000D040CC56DF4FE881F981C459D040099530
:1012B000FFEF6F1A7F0AC557DF4FD982C882CB581C
:1012C000D040C557DF4FC880D980CB58D040C656D4
:1012D000DF4FE881F981CA59D040CECF8181853274
:1012E00051F4AF014E5F5F4FC656DF4F59834883BD
:1012F000CA59D040D0CFC656DF4FA881B981CA594C
:10130000D040C456DF4F1882CC59D040C357DF4F6E
:101310001882CD58D040C157DF4F1882CF58D040E7
:10132000C057DF4F1882C059D040FD018D918B32DC
:1013300009F45EC060F48032E9F0833209F05FC0E6
:10134000F1E0C357DF4FF883CD58D040EECF8D3258
:1013500051F0803309F053C021E0C456DF4F288399
:10136000CC59D040E2CF21E0C157DF4F2883CF587E
:10137000D040DBCF392D3C7F932EC057DF4F4881C3
:10138000C059D040942ACF56DF4F5881C159D04020
:1013900050FB92F8C157DF4F6881CF58D04060FBB7
:1013A00093F8C257DF4F7881CE58D04070FB94F845
:1013B000CE56DF4F8881C259D04080FB95F8C35785
:1013C000DF4F9881CD58D04090FB96F8CD56DF4F37
:1013D000E881C359D040E0FB97F8892D837009F06C
:1013E000A4CF41E0C057DF4F4883C059D0409DCFC4
:1013F00031E0C057DF4F3883C059D04096CFC35734
:10140000DF4F5881CD58D040C256DF4F5883CE5958
:10141000D0408A3249F0DF01C757DF4F1982188266
:10142000C958D0402AE020C0C6010296D6010D90CE
:10143000BC91A02DC757DF4FB983A883C958D040AE
:10144000B7FF0FC0B195A195B109C757DF4FB98359
:10145000A883C958D040B1E0C157DF4FB883CF58F7
:10146000D04031966C011CC0FD018D9190ED980F1C
:101470009A30B0F4C757DF4F48815981C958D040DE
:10148000249FF001259FF00D112490E0C097E80FF4
:10149000F91FC757DF4FF983E883C958D040E4CF1D
:1014A000C157DF4F5881CF58D040552329F0C4563B
:1014B000DF4F1882CC59D04080818E3219F581815E
:1014C0008A3231F0DF011196A12CB12C2AE009C03B
:1014D000D601AD90BC90329696012E5F3F4F6901C8
:1014E00014C0FD018D9190ED980F9A3070F4A50114
:1014F000249F5001259FB00C112490E0C097A80EA6
:10150000B91EEFCFAA24AA94BA2CDF018D91883698
:10151000D9F018F48C3459F01FC08C3641F08A375A
:10152000D9F4C257DF4F1882CE58D04006C051E0E0
:10153000C257DF4F5883CE58D040FD01CE56DF4F03
:101540001882C259D04012C0FD0161E0CE56DF4F73
:101550006883C259D04005C0CE56DF4F1882C259A9
:10156000D040C257DF4F1882CE58D040CF010196ED
:10157000C656DF4F99838883CA59D040808095E64C
:10158000891609F4FCC19815E8F0A3E58A1609F458
:1015900052C0A81560F0B5E48B1609F4F0C127E439
:1015A000821609F4E4C1882009F467C42AC033E62E
:1015B000831671F1381508F4CAC048E5841609F499
:1015C0008CC01FC050E7851609F470C0581560F034
:1015D00067E6861609F4CBC1861608F4CFC179E612
:1015E000871609F4B4C00DC085E7881609F475C0E4
:1015F00098E7891609F46CC0A3E78A1202C0812C0F
:101600001CC0C557DF4FD982C882CB58D04041C4D7
:10161000F6013296C557DF4FF983E883CB58D040A7
:10162000D6018C918983812C8E010E5F1F4FFE01A4
:1016300031962F013CC48824839496012E5F3F4F3E
:10164000C557DF4F39832883CB58D040D6014D9002
:101650005C904114510421F4A4E04A2EA1E05A2EDA
:10166000B7FE04C0F0E1AF2EF7E2BF2E8201882062
:10167000C1F0F8018491882309F419C4C8018419C0
:1016800095098A159B050CF012C40F5F1F4FF1CF0F
:10169000C801841995098A159B050CF008C40F5FD1
:1016A0001F4FD8018C918111F3CF01C4F6013296FE
:1016B000C557DF4FF983E883CB58D040D6016D91F1
:1016C0007C9180E090E0E1E4EE2EE1E0FE2E2BC084
:1016D00071E5E72E71E0F72E04C061E4E62E61E0CB
:1016E000F62EC257DF4FB881CE58D040BB2371F0E1
:1016F000F6013496C557DF4FF983E883CB58D040C5
:10170000D6016D917D918D919C910DC0C60102967F
:10171000F60160817181C557DF4F99838883CB586B
:10172000D04080E090E021E0CF56DF4F2883C159C0
:10173000D04035E7831205C0CF56DF4F1882C1591C
:10174000D040C057DF4F1882C059D04043C0C25765
:10175000DF4F4881CE58D040442379F0B6016C5F0A
:101760007F4FC557DF4F79836883CB58D040D60170
:101770006D917D918D919C910FC0F6013296C55768
:10178000DF4FF983E883CB58D040D6016D917C912F
:10179000882777FD8095982F97FF13C090958095A7
:1017A000709561957F4F8F4F9F4FCF56DF4F1882B7
:1017B000C159D040B2E0C057DF4FB883C059D040C4
:1017C00005C0CF56DF4F1882C159D04051E4E52EF5
:1017D00051E0F52EE1E0CD56DF4FE883C359D0400C
:1017E000611571058105910529F4CD56DF4F1882E9
:1017F000C359D040A114B10441F4CD56DF4FF88154
:10180000C359D040FF2309F481C0CF56DF4F288150
:10181000C159D0408E010A571F4F2130A9F02AE04C
:1018200030E040E050E00E94C51AF701E60FF71FD4
:101830008081D8018E938D01B901CA0161157105AE
:101840008105910561F715C0FB01EF70FF27EE0DD3
:10185000FF1D2081F80122938F0144E09695879522
:10186000779567954A95D1F76115710581059105C1
:1018700059F7B7FE4EC0C456DF4FF881CC59D0405F
:10188000FF2309F446C0292D2C7F922EC057DF4F2D
:101890003881C059D040932ACF56DF4F4881C15973
:1018A000D04040FB92F8C157DF4F5881CF58D0400D
:1018B00050FB93F8C257DF4F6881CE58D04060FB91
:1018C00094F8CE56DF4F7881C259D04070FB95F81E
:1018D000C357DF4F8881CD58D04080FB96F8CD5656
:1018E000DF4F9881C359D04090FB97F8292D237082
:1018F00081E090E011F480E090E0C757DF4FA880CE
:10190000B980C958D040A81AB90A03C08E010A5735
:101910001F4FF80120E32F01C957DF4F88819981BC
:10192000C758D0408E1B9F0B8A159B0514F4229339
:10193000F2CFC357DF4FA881CD58D040AA2309F476
:10194000B0C2CD56DF4FB881C359D040BB2309F494
:10195000A8C2882D8F7D883509F0A3C23197808277
:10196000E2E04E1A510880E3D2018C939AC28A9425
:101970008A9411E0A114B10449F002C0812C10E056
:10198000B7FE07C026E0A22EB12C03C0AA24A39460
:10199000B12CF6013496C557DF4FF983E883CB5855
:1019A000D040D601CD90DD90ED90FC9020E030E06D
:1019B000A901C701B6010E94601B87FF0AC0F7FAA0
:1019C000F094F7F8F094B2E0C057DF4FB883C059F5
:1019D000D040C356DF4F1883CD59D04044244394A0
:1019E000512C4C0E5D1EC757DF4FE881F981C95855
:1019F000D0404E0E5F1E20E030E040E85FE3C701BC
:101A0000B6010E94AF1C87FD32C0212C312C27EB80
:101A100033E44AEB51E5C701B6010E94AF1C87FDD4
:101A20000EC029EF32E045E150E5C701B6010E9442
:101A3000641B6B017C01FAE02F0E311CE8CF20E023
:101A400030E040E251E4C701B6010E94AF1C87FDBF
:101A500049C020E030E040E251E4C701B6010E94F5
:101A6000641B6B017C012FEF221A320AE8CF20E0C1
:101A700030E0A901C701B6010E94601B212C312C66
:101A8000882381F12FEF36EE4BED5EE2C701B60100
:101A90000E94601B181674F029EF32E045E150E512
:101AA000C701B6010E94B31C6B017C013AE0231A06
:101AB0003108E8CF20E030E040E85FE3C701B6013D
:101AC0000E94601B87FF0EC020E030E040E251E43E
:101AD000C701B6010E94B31C6B017C0141E0241ACE
:101AE0003108E8CF112301F12A143B0444F45CEFE0
:101AF00025165FEF35061CF0A218B308812C61E0B3
:101B0000A61AB10871E0C357DF4F8881CD58D04085
:101B10008727C356DF4F8883CD59D04091E0C35704
:101B2000DF4F9883CD58D040811045C037FE3DC06F
:101B300080E3E1E0F0E0EC0FFD1FC757DF4FA88125
:101B4000B981C958D040EA0FFB1F8083F201A1146C
:101B5000B10459F4C357DF4FB881CD58D040B1110B
:101B600004C0319680E090E006C032968EE2D20149
:101B700011968C93C5019C01220D331D2F5F3F4FA1
:101B800040E38F018217930729F0009719F04193E2
:101B90000197F7CF950120953095221633060CF466
:101BA000C8C05C0181E090E009C0882799278219AC
:101BB0009309820103C0820180E090E0C856DF4FA4
:101BC00099838883C859D040C856DF4F48815981CE
:101BD000C859D040A416B5060CF459C0C701B601C7
:101BE0000E94CC1BC156DF4F688379838A839B8315
:101BF000CF59D040C156DF4FE881F981CF59D0404D
:101C0000BF01882777FD8095982F0E94FF1B9B01BD
:101C1000AC01C701B6010E94FB1A20E030E040E2AF
:101C200051E40E94B31C6B017C01C8010196C156AE
:101C3000DF4F2881CF59D040205DD8012C93C85662
:101C4000DF4FE881F981C859D040EF2B81F4A1140E
:101C5000B10439F4C357DF4FF881CD58D040FF238A
:101C600031F0C8010296EEE2D8011196EC93C85605
:101C7000DF4F28813981C859D0402F5F3F4FC85668
:101C8000DF4F39832883C859D0408C019DCF20E095
:101C900030E040EA50E4C701B6010E94AF1C87FD66
:101CA00048C0F80181E090E030E322912E3251F0FB
:101CB000820F8A3321F0808380E090E003C030837C
:101CC00081E090E04E165F0680F3892B91F1882029
:101CD000B9F0F8014E165F0678F4DF018E919D0190
:101CE0008E3239F4CF010297DC018C918083F901A7
:101CF00001C080833197EECFBFEF2B1A3B0A0BC098
:101D00000F5F1F4FF8014E165F0628F4DF018E911A
:101D10008083FD01F8CF81E3E1E0F0E0EC0FFD1FEF
:101D2000C757DF4F28813981C958D040E20FF31FD0
:101D30008083C356DF4F3881CD59D040332349F0DB
:101D4000F8018291803311F48F01FACF8E3209F4B9
:101D50008F018820E9F1D8018C92C801029637FEE4
:101D600007C02DE211962C9331942194310803C0C1
:101D70002BE2F80121838C01065F1F4FE1E0F0E0C8
:101D80009F0178014FEFE41AF40AC1016AE070E0A4
:101D90000E94B11A805DD8018C931B0161157105F9
:101DA00019F031968701ECCFE230F105D4F3D70179
:101DB000AE1BBF0BCD014D91FC01E20FF31F3B9712
:101DC00040832150310912161306ACF30950110952
:101DD000C456DF4FB881CC59D040BB2309F466C04C
:101DE000E92DEC7F9E2EC057DF4FF881C059D040BF
:101DF0009F2ACF56DF4F2881C159D04020FB92F84F
:101E0000C157DF4F3881CF58D04030FB93F8C257CD
:101E1000DF4F4881CE58D04040FB94F8CE56DF4F7C
:101E20005881C259D04050FB95F8C256DF4F6881A7
:101E3000CE59D04060FB96F8CD56DF4F7881C3591C
:101E4000D04070FB97F8292D237081E090E011F4C9
:101E500080E090E0C757DF4F28813981C958D040D2
:101E6000281B390BF20140E32F01C8018E1B9F0B89
:101E700082179307DCF44293F7CFC557DF4FD9821F
:101E8000C882CB58D040C656DF4FF983E883CA5981
:101E9000D040812C03E011E080E0482E81E0582EF4
:101EA00006C0812C8E010A571F4F01C0812C0419D6
:101EB0001509C757DF4F88819981C958D0408017CD
:101EC00091070CF445C0992D9C7F992EC057DF4F88
:101ED000A881C059D0409A2ACF56DF4FB881C15946
:101EE000D040B0FB92F8C157DF4FE881CF58D040C7
:101EF000E0FB93F8C257DF4FF881CE58D040F0FB9B
:101F000094F8CE56DF4F2881C259D04020FB95F877
:101F1000C256DF4F3881CE59D04030FB96F8CD56AF
:101F2000DF4F4881C359D04040FB97F8C757DF4F78
:101F3000E880F980C958D040E01AF10A292D2370B1
:101F400081E090E011F480E090E0E81AF90A02C024
:101F5000E12CF12CC157DF4F5881CF58D04051119F
:101F600021C06701F1E0CF1AD108D7FC0FC0CA56D3
:101F7000DF4F68817981C659D04080E2CC56DF4F6F
:101F8000E881F981C459D0400995ECCFC701F7FE2B
:101F900002C080E090E0680E791E21E0E21AF108AC
:101FA000E81AF90A392D3C7F932EC057DF4F48813C
:101FB000C059D040942ACF56DF4F5881C159D040E4
:101FC00050FB92F8C157DF4F6881CF58D04060FB7B
:101FD00093F8C257DF4F7881CE58D04070FB94F809
:101FE000CE56DF4F8881C259D04080FB95F8C2564B
:101FF000DF4F9881CE59D04090FB96F8CD56DF4FF9
:10200000A881C359D040A0FB97F8892D8370A9F00F
:10201000813011F48BE201C08DE2CA56DF4F688136
:102020007981C659D040CC56DF4FE881F981C45937
:10203000D0400995FFEF6F1A7F0A811003C062013B
:1020400058011AC05201680121E0C21AD108D7FC18
:1020500029C0F5018491CA56DF4F68817981C6593C
:10206000D040CC56DF4FE881F981C459D040099562
:10207000FFEFAF1ABF0AE8CFF1E0AF1AB108B7FC23
:1020800011C0CA56DF4F68817981C659D040D60148
:102090008D916D01CC56DF4FE881F981C459D04054
:1020A0000995EACF17FF02C000E010E0600E711E34
:1020B000C157DF4F2881CF58D040222309F401C9EE
:1020C00087010150110917FD0FC0CA56DF4F688103
:1020D0007981C659D04080E2CC56DF4FE881F98142
:1020E000C459D0400995EDCFF7FE02C0E12CF12C88
:1020F0006E0C7F1CE6C8C301CE55DF4F0FB6F894B7
:10210000DEBF0FBECDBFDF91CF911F910F91FF902A
:10211000EF90DF90CF90BF90AF909F908F907F9087
:102120006F905F904F903F902F90089570934B0267
:1021300060934A02259A2D98109280009AE190931C
:1021400081002FEC30E03093870020938600982F99
:10215000906490937C0097B121E030E001C0220FA1
:102160008A95EAF7322F3095932397B988B1832364
:1021700088B9EEE7F0E08081822B808387E080934E
:102180007B008CEE80937A0008951F920F920FB619
:102190000F9211242F933F934F935F936F937F93ED
:1021A0008F939F93AF93BF93EF93FF9380E286BB90
:1021B000609178007091790076956795769567952E
:1021C000605880914A0290914B020E94C402809113
:1021D0008005882341F080914A0290914B020E9431
:1021E0004A04807F01C080E88BB9FF91EF91BF91D5
:1021F000AF919F918F917F916F915F914F913F919F
:102200002F910F900FBE0F901F9018950F931F9353
:10221000CF93DF931F92CDB7DEB78C01CB0109833B
:10222000DB011296ED91FC91139741E050E0BE0165
:102230006F5F7F4F0995019719F4C801992702C074
:102240008FEF9FEF0F90DF91CF911F910F91089526
:102250000F931F93FC01213041F060F02230C1F454
:10226000048915892689378908C00089118922893E
:10227000338903C000E010E09801040F151F261FEA
:10228000371F008B118B228B338BB801C90104C01F
:102290006FEF7FEF8FEF9FEF1F910F910895CF9317
:1022A000DF93EC01EA85FB850995E885F98520E057
:1022B00040E050E0BA01CE010995CE01DF91CF9107
:1022C0000895DC011A96ED91FC911B97099480E02A
:1022D00090E00895CF93DF931F92CDB7DEB7DC0176
:1022E000ED91FC9141E050E0BE016F5F7F4F099599
:1022F000019719F4898190E002C08FEF9FEF0F9052
:10230000DF91CF910895CF93DF93CDB7DEB79E01D4
:10231000275F3F4F4D815E8166E071E18F81988537
:102320000E940809DF91CF9108950F931F93CF93D7
:10233000DF938C01EB018991882349F0B80190E08B
:102340000E9406118F3F2FEF9207A9F702C080E08D
:1023500090E0DF91CF911F910F9108954F925F927E
:102360006F927F928F929F92AF92BF92CF92DF92A5
:10237000EF92FF920F931F93CF93DF93CDB7DEB70A
:10238000A0970FB6F894DEBF0FBECDBF5C014B0126
:1023900069017A01412C512C3201C114D104E104AC
:1023A000F10441F186010132110510F000E210E064
:1023B000D501ED91FC91A801BE016F5F7F4FC50172
:1023C000099580179107B1F4D4011296ED91FC9113
:1023D0001397A801BE016F5F7F4FC4010995480E96
:1023E000591E611C711CC01AD10AE108F10880173E
:1023F000910799F2C301B201A0960FB6F894DEBF1F
:102400000FBECDBFDF91CF911F910F91FF90EF9045
:10241000DF90CF90BF90AF909F908F907F906F9004
:102420005F904F900895AF92BF92CF92DF92EF925C
:10243000FF920F931F93CF93DF9300D000D0CDB7BF
:10244000DEB75C018FB7F894C0908505D090860503
:10245000E0908705F09088058FBFC50149835A83B6
:102460006B837C830E946A1149815A816B817C81D4
:10247000019659F08FB7F894C0908505D0908605E5
:10248000E0908705F09088058FBF8FB7F894009192
:1024900085051091860520918705309188058FBFAD
:1024A0000C191D092E093F094017510762077307D0
:1024B000A4F6D5011E96ED91FC911F97C5010F90D2
:1024C0000F900F900F90DF91CF911F910F91FF9080
:1024D000EF90DF90CF90BF90AF900994FC0188E11E
:1024E000DF011D928A95E9F787E691E19787868754
:1024F00021E631E137832683958784879387828716
:10250000918380832FE431E13583248328E231E114
:10251000318720879383828308952F923F924F9231
:102520005F926F927F928F929F92AF92BF92CF9263
:10253000DF92EF92FF920F931F93CF93DF9300D020
:1025400000D01F92CDB7DEB71C016C0128E0C20E8F
:10255000D11CFC0186851F928F93DF92CF928681DA
:102560001F928F933F922F928FEA91E09F938F93C8
:102570008DE992E09F938F930E9483118101005F08
:102580001F4F0FB6F894DEBF0FBECDBFA12CB12CEC
:10259000710190E5E90EF11CFEEC8F2EF1E09F2E0B
:1025A000ADE96A2EA2E07A2EF701808190E0A816AC
:1025B000B90614F5F8018781882319F08DEA91E0B6
:1025C00002C08DEC91E09F938F93F80186811F925A
:1025D0008F931F930F939F928F927F926F920E947F
:1025E0008311FFEFAF1ABF0A085F1F4F0FB6F894B1
:1025F000DEBF0FBECDBFD8CF2101F4E54F0E511C79
:10260000F20181818F9380818F933101F6E56F0E06
:10261000711CF30181818F9380818F9381EE91E012
:102620009F938F938DE992E09F938F930E948311E4
:10263000F1011686178686E0EEEEF1E0D6010190F4
:102640000D928A95E1F788E0F1013896ADE4B2E0A9
:1026500001900D928A95E1F788E0F101A5E5B2E0DD
:1026600001900D928A95E1F70FB6F894DEBF0FBE88
:10267000CDBF80E090E020E030E068E0F701F0813D
:10268000F98308964F2F50E0241735077CF4F101A9
:10269000E80FF91F3896DC01AB5ABD4F462F019069
:1026A0000D924A95E1F72F5F3F4FE8CFFE5FFA8327
:1026B000F0934C020DE512E073E6E72E72E0F72E80
:1026C000E4E62E2EE2E03E2E82E090E09D838C83B5
:1026D000CF2ED12C56018C819D818C159D050CF03F
:1026E00054C0F101808146E050E06EE771E0811155
:1026F00026C0C8010E941E1D892B29F4F701808184
:10270000813009F442C066E7862E61E0962EF4011E
:10271000819191914F01009731F146E050E0B8016D
:102720000E941E1D892B99F7EC81FD8153E0EE0F6D
:10273000FF1F5A95E1F7E35BFD4F81E012C0C8012E
:102740000E941E1D892B99F4F7018081813079F454
:10275000EC81FD8193E0EE0FFF1F9A95E1F7E35BBB
:10276000FD4F87833EC0F7012081211110C08C816D
:102770009D8101969D838C83085F1F4F98E0E90E31
:10278000F11CE8E02E0E311CA5CF10E02BC044E078
:1027900050E0B80185EF91E02B830E941E1D4C0193
:1027A00045E050E0B8018AEF91E00E941E1D31E043
:1027B0002B81892B09F030E0892809F05AC021507B
:1027C0008C819D8143E0880F991F4A95E1F7FC01B8
:1027D000E35BFD4F2683211102C021E027833111E5
:1027E0004DC011E046E050E06EE771E085E592E013
:1027F0000E941E1D892B61F4EC81FD8183E0EE0FA8
:10280000FF1F8A95E1F7E35BFD4F86818130A1F0E0
:10281000112391F0F30100811181F20120813181B6
:1028200040914C0250E06DE472E08AEC92E00E942C
:10283000890764E072E002C060E072E08DE992E036
:102840000F900F900F900F900F90DF91CF911F91ED
:102850000F91FF90EF90DF90CF90BF90AF909F903F
:102860008F907F906F905F904F903F902F900C943F
:102870009511332309F47BCF31E0A1CF2A812A308F
:1028800008F0AFCFA60123E0440F551F2A95E1F7CA
:10289000435B5D4F20E030E068E028503109EC8177
:1028A000FD81EA15FB0574F471E0A71AB108DA019D
:1028B000A20FB31FFD011896762F01900D927A9505
:1028C000E1F7EBCF835B9D4F26E0EEE7F1E0DC0123
:1028D00001900D922A95E1F721E0FC0126832783E0
:1028E00089818D5F80934C028C819D8101969D83AF
:1028F0008C8377CFFC0182A590E00895FC0112A69D
:102900000895CF93DF93EC012A8D3B8D8C8D9D8DA7
:102910002817390709F0F8CF8BA59CA5DC01ED91AC
:10292000FC910284F385E02D09958111F4CF80E0BC
:1029300090E0DF91CF910895CF93DF93EC01FB01FD
:102940005FB7F894228D338D868D978D28173907C0
:10295000E9F4248D358D80A191A128173907B1F4B0
:1029600081E05FBF80FD11C04FB7F894A48DB58D95
:10297000CC93248D358D80A191A12817390799F426
:10298000868D978D958F848F14C0DACF848D958D29
:10299000228D338D2150310941E08217930709F0D0
:1029A00040E0842FDECF248D358D2F5F3F4F358F54
:1029B000248F4FBF83A594A5DC01ED91FC91008489
:1029C000F185E02D0995CE019927DF91CF910895EA
:1029D000CF92DF92EF92FF920F931F93CF93DF93EB
:1029E0007C016A01EB0100E010E00C151D0551F0BF
:1029F0008991B70190E00E949C14019619F00F5F35
:102A00001F4FF3CFC801DF91CF911F910F91FF901E
:102A1000EF90DF90CF900895FC014FB7F89422A17A
:102A200033A184A195A14FBF2817390739F082A59A
:102A3000897B79F024C082A5897BC9F74FB7F894C8
:102A400022A133A184A195A14FBF2817390799F37B
:102A5000EECF2FB7F894A2A1B3A180A591A5A81796
:102A6000B90719F486A197A104C0A2A1B3A1CD0111
:102A7000019693A382A38C912FBF90E008958FEFCE
:102A80009FEF0895CF92DF92EF92FF920F931F93E3
:102A9000CF93DF937C016A01EB0100E010E00C159D
:102AA0001D0559F0C7010E940C158F3F2FEF9207AB
:102AB00021F00F5F1F4F8993F2CFC801DF91CF91B3
:102AC0001F910F91FF90EF90DF90CF900895CF93DB
:102AD000DF93EC01CB01FB01EE0FFF1FEF57FA4F25
:102AE000D183C083798F688F0E943E17DC019CA739
:102AF0008BA716968D919C91179712962D913C91CC
:102B000013973F8F2E8F3D8F2C8F3B8F2A8F0197EE
:102B1000820F931F99A388A318968D919C91199762
:102B200014962D913C9115973FA32EA33DA32CA362
:102B30003BA32AA30197820F931F99A788A7ED9122
:102B4000FC9111970190F081E02DBE01CD01099516
:102B50001AA6CE01DF91CF910895FC014FB7F894EA
:102B600022A133A184A195A14FBF28173907B1F045
:102B70002FB7F894A2A1B3A180A591A5A817B90772
:102B800019F486A197A104C0A2A1B3A1CD01019619
:102B900093A382A38C912FBF90E008958FEF9FEFB6
:102BA0000895DC019B968D919C919C97DC01ED91A1
:102BB000FC910480F581E02D0994DC019B968D91B8
:102BC0009C919C97DC01ED91FC910680F781E02DB2
:102BD00009944FB7F894FC0124A135A133A322A393
:102BE0004FBF08950F931F93CF93DF9300D000D072
:102BF000CDB7DEB78C014B835C8369837A830E94F7
:102C0000E9154B815C8169817A81C8010F900F9031
:102C10000F900F90DF91CF911F910F910C94E814BA
:102C2000AF92BF92CF92DF92EF92FF920F931F93DA
:102C3000CF93DF9300D0CDB7DEB75C016A01698323
:102C40007A830E948114C5010E94E9156981062FCB
:102C50007A81172FE12CF12CEC14FD0499F0B501C9
:102C600080E090E00E949C14C5010E940C158F3FEB
:102C70002FEF920739F0F80181938F01FFEFEF1AE0
:102C8000FF0AEACFC7010F900F90DF91CF911F91FC
:102C90000F91FF90EF90DF90CF90BF90AF9008958D
:102CA0004FB7F894FC01248D358D338F228F4FBFA1
:102CB0000895CF93DF93EC010E94E915CE01DF91D7
:102CC000CF910C945016CF93DF93EC010E948114A6
:102CD0008BA59CA5DC01ED91FC910280F381E02D98
:102CE0000995CE010E94591680E090E0DF91CF91C6
:102CF0000895CF93DF93EC010E946316688D798D60
:102D0000CE010E946715CE01DF91CF910895FC019D
:102D10008DE2DF011D928A95E9F789E796E19583B7
:102D2000848383E696E19783868382E495E19183A9
:102D3000808388EE94E19383828381E894E1938792
:102D400082878AE794E1958784878EE794E1978765
:102D50008687CF010C946715CF93DF93EC010E9417
:102D6000871680E196E19983888382EF95E19B83C2
:102D70008A83DF91CF9108951092C00088E98093F3
:102D8000C10008951092C1000895FC01228521110F
:102D900005C021E0228788EB8093C10008959A0145
:102DA000AB01CA01B9019695879577956795605CE7
:102DB0007D4B804F9F4F0E94C51A2150310930939F
:102DC000C5002093C4000895E2ECF0E08081A4E007
:102DD000660F771FAA95E1F78F7C862B8083089575
:102DE0009FB7F89484B1886284B99FBF8FB7F89475
:102DF000229A8FBF8FB7F89424988FBF80ED8CBD37
:102E00008CB581608CBD8DB58E7F8DBD08951CBC49
:102E10009FB7F89484B1837C84B99FBF08950895C7
:102E20000895FC01828508956FB7F894DC011A9625
:102E30002C911A97211120C0E0918305F09184050F
:102E4000428D538D248D358D42175307A9F021E013
:102E50001A962C93A28DB38D80A191A1A817B907C2
:102E600019F4868D978D04C0A28DB38DCD01019686
:102E7000938F828F8C918EBD6FBF08952BE0AC0134
:102E8000249FC001259F900D1124855D9E4F0895BC
:102E90001F920F920FB60F9211242F933F938F938F
:102EA0009F93AF93BF93EF93FF93E0918105F091D0
:102EB0008205228D338D848D958D2817390731F445
:102EC00088E98093C1001092350113C0A28DB38DA3
:102ED00080A191A1A817B90719F4868D978D04C018
:102EE000A28DB38DCD010196938F828F8C918093AB
:102EF000C600FF91EF91BF91AF919F918F913F914C
:102F00002F910F900FBE0F901F9018951F920F9248
:102F10000FB60F9211242F933F934F935F938F938C
:102F20009F93AF93BF93EF93FF93E0918105F0914F
:102F3000820592A58091C0008871892B82A750914B
:102F4000C60022A133A186A197A12817390739F419
:102F500024A135A180A591A52817390761F024A1E6
:102F600035A182A193A1019741E02817390709F003
:102F700040E0842F01C081E080FF04C082A5816011
:102F800082A712C0A4A1B5A15C9324A135A180A5FC
:102F900091A52817390719F486A197A103C084A128
:102FA00095A1019695A384A3FF91EF91BF91AF9155
:102FB0009F918F915F914F913F912F910F900FBEF5
:102FC0000F901F9018951F920F920FB60F92112419
:102FD0002F933F934F938F939F93AF93BF93EF9311
:102FE000FF93E0918305F091840522A133A186A18E
:102FF00097A12817390739F424A135A180A591A5F7
:103000002817390761F024A135A182A193A1019766
:1030100041E02817390709F040E0842F01C081E022
:1030200080FD13C08EB5A4A1B5A18C9324A135A1B8
:1030300080A591A52817390719F486A197A103C087
:1030400084A195A1019695A384A3E0918305F091B5
:103050008405228D338D848D958D2817390799F03D
:10306000A28DB38D80A191A1A817B90719F4868DFF
:10307000978D04C0A28DB38DCD010196938F828F61
:103080008C918EBD02C010924001FF91EF91BF91D3
:10309000AF919F918F914F913F912F910F900FBEC4
:1030A0000F901F9018959FB7F89483E085BB14BCD0
:1030B00015BC82E084BD85B5836085BD16BC89EFF3
:1030C00087BDEEE6F0E080818E7F80838081826024
:1030D00080839FBF0895FF920F931F93CF93DF9339
:1030E000DC01FFB6F894E0917805F0917905409104
:1030F0008505509186056091870570918805149625
:103100000D911D912D913C911797400F511F621FFA
:10311000731F18964D935D936D937C931B978081DD
:103120009181009769F00085118522853385041B04
:10313000150B260B370B1016110612061306B4F4E6
:103140001196FC93EE938281938113969C938E93B8
:103150001297C281D381B983A883B383A283FFBEB0
:10316000DF91CF911F910F91FF900895FC01D7CF70
:10317000CF93DF934FB7F894DC011296ED91FC9159
:1031800013972D913C911197318320830D90BC9121
:10319000A02D1396FC93EE9312974FBFDF91CF9122
:1031A00008950F931F93CF93DF93FC01EB01A88148
:1031B000B981409185055091860560918705709190
:1031C00088050481158126813781400F511F621FB8
:1031D000731F40875187628773878D919C911197E8
:1031E000009779F018960D911D912D913C911B97A8
:1031F000041B150B260B370B1016110612061306AF
:10320000BCF4B183A08312968D919C911397938304
:1032100082831296CD91DC911397F983E8831396FC
:10322000FC93EE931297DF91CF911F910F91089528
:10323000DC01D3CFEF92FF920F931F93CF93DF93D5
:103240007C01F701A081B1818D919C91119700972C
:1032500059F12FB7F89440918505509186056091FA
:103260008705709188052FBF18960D911D912D919E
:103270003C911B97401B510B620B730B77FD14C0E5
:103280001296ED91FC911397918380838D919C917F
:103290001197EC01FB83EA831C96ED91FC911D973D
:1032A000CD010C960995CDCFDF91CF911F910F9154
:1032B000FF90EF900895CF92DF92EF92FF920F93DD
:1032C0001F934FB7F89400918505109186052091C2
:1032D0008705309188054FBFEFB7F894C0908505FA
:1032E000D0908605E0908705F0908805EFBFC01A62
:1032F000D10AE20AF30AC616D706E806F9060CF464
:10330000EBCF1F910F91FF90EF90DF90CF9008953A
:1033100026B536B5321718F499EF930F01C0932FE5
:10332000921B981718F4891B232FF3CF0895CF937E
:10333000C82F8B3F38F061E070E080E090E00E94A1
:103340005B19CA5F8C2FCF910C9488191F920F9232
:103350000FB60F9211240F931F932F933F934F9308
:103360005F936F937F938F939F93AF93BF93CF930D
:10337000DF93EF93FF938091850590918605A0914F
:103380008705B09188050196A11DB11D8093850523
:1033900090938605A0938705B0938805A091780542
:1033A000B09179058D919C911197009751F12FB7AC
:1033B000F89440918505509186056091870570913C
:1033C00088052FBF18960D911D912D913C911B974B
:1033D000401B510B620B730B77FD13C01296ED91DE
:1033E000FC91139791838083CD91DC911197FB839E
:1033F000EA831C96ED91FC911D97CD010C960995E1
:10340000CDCFFF91EF91DF91CF91BF91AF919F9180
:103410008F917F916F915F914F913F912F911F916C
:103420000F910F900FBE0F901F901895E8E7F5E0F1
:10343000ACE7B5E0B183A08310927B0510927A05CA
:103440001D921C92F0937F05E0937E0510928505F6
:103450001092860510928705109288050C945318D7
:1034600078940E94161A40E050E060E070E080E23C
:1034700094E00E9428054DE852E160E274E08AEC95
:1034800092E00E94DA0860E070E08DE992E00E942C
:10349000871640E052EC61E070E08DE992E00E9416
:1034A000D1158FB7F8948090850590908605A090EF
:1034B0008705B09088058FBF86E0EEE7F1E0A3E1D5
:1034C000B1E001900D928A95E1F781E080931901B6
:1034D00010E0BEE0EB2EB2E0FB2ECDE9D2E08AECAC
:1034E00092E00E940F062FB7F89480918505909185
:1034F0008605A0918705B09188052FBF8819990985
:10350000AA09BB0981389F44A241B10544F3DD24D7
:10351000D394D10E1F921F93FF92EF92DF93CF931C
:103520000E9483118FB7F89480908505909086054E
:10353000A0908705B09088058FBF03E310E027E1D6
:1035400032E044E050E06BE071E08AEC92E00E94EF
:1035500089070F900F900F900F900F900F901D2DD7
:10356000BECF97FB072E16F4009407D077FD09D045
:103570000E94E71A07FC05D03EF4909581959F4F75
:103580000895709561957F4F0895A1E21A2EAA1BA8
:10359000BB1BFD010DC0AA1FBB1FEE1FFF1FA21703
:1035A000B307E407F50720F0A21BB30BE40BF50B00
:1035B000661F771F881F991F1A9469F76095709589
:1035C000809590959B01AC01BD01CF010895AA1B88
:1035D000BB1B51E107C0AA1FBB1FA617B70710F0FE
:1035E000A61BB70B881F991F5A95A9F78095909530
:1035F000BC01CD0108955058BB27AA270ED075C134
:1036000066D130F06BD120F031F49F3F11F41EF4FD
:103610005BC10EF4E095E7FB51C1E92F77D180F350
:10362000BA17620773078407950718F071F49EF5BF
:103630008FC10EF4E0950B2EBA2FA02D0B01B9010E
:1036400090010C01CA01A0011124FF27591B99F018
:10365000593F50F4503E68F11A16F040A22F232F24
:10366000342F4427585FF3CF469537952795A79574
:10367000F0405395C9F77EF41F16BA0B620B730B1B
:10368000840BBAF09150A1F0FF0FBB1F661F771F8C
:10369000881FC2F70EC0BA0F621F731F841F48F441
:1036A000879577956795B795F7959E3F08F0B3CFC7
:1036B0009395880F08F09927EE0F979587950895B1
:1036C000D9D008F481E008950CD00FC107D140F0A3
:1036D000FED030F021F45F3F19F0F0C0511139C134
:1036E000F3C014D198F39923C9F35523B1F3951B73
:1036F000550BBB27AA2762177307840738F09F5F13
:103700005F4F220F331F441FAA1FA9F333D00E2E81
:103710003AF0E0E830D091505040E695001CCAF7EE
:1037200029D0FE2F27D0660F771F881FBB1F2617B3
:1037300037074807AB07B0E809F0BB0B802DBF0186
:10374000FF2793585F4F2AF09E3F510568F0B6C09F
:1037500000C15F3FECF3983EDCF386957795679563
:10376000B795F7959F5FC9F7880F911D9695879537
:1037700097F90895E1E0660F771F881FBB1F621756
:1037800073078407BA0720F0621B730B840BBA0B14
:10379000EE1F88F7E095089504D06894B111D9C060
:1037A0000895BCD088F09F5790F0B92F9927B75152
:1037B000A0F0D1F0660F771F881F991F1AF0BA95F5
:1037C000C9F712C0B13081F0C3D0B1E00895C0C0D4
:1037D000672F782F8827B85F39F0B93FCCF38695EB
:1037E00077956795B395D9F73EF490958095709548
:1037F00061957F4F8F4F9F4F0895E89409C097FBC5
:103800003EF490958095709561957F4F8F4F9F4FB7
:103810009923A9F0F92F96E9BB279395F6958795FB
:1038200077956795B795F111F8CFFAF4BB0F11F4BE
:1038300060FF1BC06F5F7F4F8F4F9F4F16C0882365
:1038400011F096E911C0772321F09EE8872F762F9B
:1038500005C0662371F096E8862F70E060E02AF0DC
:103860009A95660F771F881FDAF7880F96958795C8
:1038700097F90895990F0008550FAA0BE0E8FEEF9D
:1038800016161706E807F907C0F012161306E40724
:10389000F50798F0621B730B840B950B39F40A261D
:1038A00061F0232B242B252B21F408950A2609F4FB
:1038B000A140A6958FEF811D811D089597F99F67FF
:1038C00080E870E060E008959FEF80EC08950024A8
:1038D0000A941616170618060906089500240A9475
:1038E00012161306140605060895092E0394000CFB
:1038F00011F4882352F0BB0F40F4BF2B11F460FF8A
:1039000004C06F5F7F4F8F4F9F4F089557FD9058B2
:10391000440F551F59F05F3F71F04795880F97FB93
:10392000991F61F09F3F79F087950895121613064D
:103930001406551FF2CF4695F1DF08C0161617067C
:103940001806991FF1CF86957105610508940895B1
:10395000E894BB2766277727CB0197F908958ADF7C
:1039600008F48FEF08950BD0C0CFB1DF28F0B6DF99
:1039700018F0952309F0A2CFA7CF1124EACFC6DF14
:10398000A0F3959FD1F3950F50E0551F629FF00172
:10399000729FBB27F00DB11D639FAA27F00DB11DCB
:1039A000AA1F649F6627B00DA11D661F829F222754
:1039B000B00DA11D621F739FB00DA11D621F839FDB
:1039C000A00D611D221F749F3327A00D611D231FB1
:1039D000849F600D211D822F762F6A2F11249F57FF
:1039E00050408AF0E1F088234AF0EE0FFF1FBB1F22
:1039F000661F771F881F91505040A9F79E3F5105C1
:103A000070F05CCFA6CF5F3FECF3983EDCF3869579
:103A100077956795B795F795E7959F5FC1F7FE2B6B
:103A2000880F911D9695879597F90895911108959E
:103A300081568A5108F4805285580895FB01DC01B3
:103A400004C08D910190801921F441505040C8F775
:103A5000881B990B0895FC01615070400190011082
:103A6000D8F7809590958E0F9F1F0895F894FFCFFB
:103A70003F3F3F003C4E554C4C3E0061707A6272B5
:103A800074000000000000000000007769646531E8
:103A90000001007769646532000200910158053821
:103AA00005200020000085011805F80420002000F2
:103AB00000303132333435363738394142434445AA
:103AC00046303132333435363738396162636465B4
:103AD0006652454C41590000574944450000005486
:103AE000524143450000610168016F0100004C55DF
:103AF0003445585400F01607170F171017141711F4
:103B000017BC16C216CF16E416C5161117252E3689
:103B100073002D2564003A252E2A730A002A000A14
:103B20000A5352435B252E36732D25645D2C2044A9
:103B300053545B252E36732D25645D0D0A0076697E
:103B4000613A205B252E36732D256425735D0D0AA1
:103B500000444154413A20252E2A730D0A00617019
:103B60007A627274005749444500545241434500FB
:103B70004E4F542052455045415445440A00426539
:103B800065702025640A003E4C5534455854204148
:103B9000726475696E6F20446967697065617465E8
:103BA0007220687474703A2F2F657874726164693A
:0A3BB0006F2E73662E6E65742F00F1
:00000001FF
